S01700004763634170706C69636174696F6E312E737265635B
S11300000EC01DC077C0B9C01AC019C018C017C02F
S113001016C015C014C013C012C011C010C01124E2
S11300201FBECFE5D2E0DEBFCDBF20E0A0E6B0E04A
S113003001C01D92A436B207E1F702D0CCC0E0CFD4
S113004087B3886187BB87B3887F87BBC29AC3980D
S113005080B7806880BF80B78B6080BF85E08DBD2E
S113006089B7806489BF8BB780628BBF85B3876093
S113007085BB85B7826085BF789458E090E141E004
S1130080209162003091630082E0B09B02C0B1997C
S1130090F7CF2111F5CF332399F38150B1F7B099FC
S11300A002C0B3991DC0B19914C0B39B1DC011C047
S11300B088B3892788BBE3EDF0E33197F1F700C0FB
S11300C0000021503109A1F7C398C49888B38C7FEC
S11300D088BB409362001092610010926000D0CF00
S11300E088B3852788BBDFCF10926300C39A2AEFB9
S11300F030E0DECF1F920F920FB60F9211248F9330
S1130100B29909C080916200811130C0809163006E
S1130110811129C00BC0B2992AC08091620081115B
S113012026C08091630081110FC021C0C39A88B397
S1130130836088BB81E080936300809362001092A7
S113014061001092600012C010926300C398C498BA
S113015088B38C7F88BB81E0809362001092610039
S11301601092600004C0B29BDCCF01C086B38F91B3
S11301700F900FBE0F901F9018951F920F920FB6FD
S11301800F9211242F938F939F93809160009091ED
S113019061000196909361008093600080916000FB
S11301A0909161008E3E924031F410926200109260
S11301B061001092600080916300882321F098B35D
S11301C080E1892788BB9F918F912F910F900FBE5B
S10D01D00F901F901895F894FFCFCC
S9030000FC
